:100000000C9433010C9454010C9454010C9454013D
:100010000C9454010C9454010C9454010C9454010C
:100020000C9454010C9454010C9454010C945401FC
:100030000C9454010C9454010C9454010C945401EC
:100040000C9454010C94D7010C9454010C94540159
:100050000C9454010C9454010C9454010C9410020F
:100060000C9454010C9454010C9454010C945401BC
:100070000C9454010C9454010C9454010C945401AC
:100080000C9454010C9454010C9454010C9454019C
:100090000C9454010C9454010C9454010C9454018C
:1000A0000C9454010C9454010C9454010C9454017C
:1000B0000C9454010C9454010C9454010C9454016C
:1000C0000C9454010C9454010C9454010C9454015C
:1000D0000C9454010C9454010C9454010C9454014C
:1000E0000C945401D302D602C902CD020D03DA02E8
:1000F000DE02E402E802EC02F202F602FA020D036A
:100100000003040308030C9404030C94EC020C9405
:10011000E4020C94C9020C94D3020C94CD020C940A
:10012000FA020C9408030C94F6020C94E8020C9466
:1001300000030C940D030C94DE020C94F2020C9458
:10014000DA020C94D6020000090A02080B0C0D0713
:100150000603040100000000000000000000000091
:10016000000000000000000000000000000000008F
:10017000000011100F00000000000000000000004F
:10018000000000000000000000000000010210203C
:1001900020080810204010204080020102010804BD
:1001A0000201010204081020408080402010080451
:1001B00002018004020180402010080402010804AA
:1001C00002010102040810204080010204081020EE
:1001D0004080050505050705080808080202020217
:1001E0000A0A0808040404040101010101010101D3
:1001F0000303030303030303040707070C0C0C0C9E
:100200000C0C0C0C02020202060606060606060686
:100210000B0B0B0B0B0B0B0B00002000230026001D
:1002200029002C002F00320000010000030106010C
:10023000090100002200250028002B002E003100BB
:10024000340002010000050108010B01000021003B
:10025000240027002A002D00300033000101000097
:10026000040107010A0111241FBECFEFD1E2DEBF56
:10027000CDBF00E00CBF12E0A0E0B2E0E4ECF7E09C
:1002800000E00BBF02C007900D92A030B107D9F774
:1002900022E0A0E0B2E001C01D92AD30B207E1F76C
:1002A0000E94A3030C94E0030C94000061E08DE035
:1002B0000E940E0361E08BE00E940E0361E080E289
:1002C0000E940E0361E081E20E940E0361E086E27B
:1002D0000E940E0361E087E20E940E0361E08EE15E
:1002E0000E940E0361E08FE10E940E0361E084E250
:1002F0000E940E0361E085E20E940E0310928000CE
:10030000E1E8F0E01082109285001092840081E70D
:1003100092E090938900809388008AE0808382E055
:1003200080936F0060E08BE00E944A0361E080E20E
:100330000E944A0361E081E20E944A0361E086E292
:100340000E944A0361E087E20E944A0361E08EE175
:100350000E944A0361E08FE10E944A0361E084E267
:100360000E944A0361E085E20C944A032091020254
:1003700030910302C9016AE070E00E94B0037093FB
:1003800001026093000221153D4784F060E08EE198
:100390000E944A0360E08FE10E944A0360E084E229
:1003A0000E944A0360E085E20C944A0308951F927C
:1003B0000F920FB60F9211240BB60F922F933F930B
:1003C0004F935F936F937F938F939F93AF93BF935D
:1003D000EF93FF938BE00E947A0361E0892B09F091
:1003E00060E08BE00E944A03809102029091030238
:1003F00001969093030280930202FF91EF91BF91C7
:10040000AF919F918F917F916F915F914F913F91AC
:100410002F910F900BBE0F900FBE0F901F9018954D
:100420001F920F920FB60F9211242F933F938F9329
:100430009F93AF93BF938091050290910602A09184
:100440000702B09108023091040223E0230F2D37F8
:1004500020F40196A11DB11D05C026E8230F0296C8
:10046000A11DB11D20930402809305029093060202
:10047000A0930702B09308028091090290910A02AA
:10048000A0910B02B0910C020196A11DB11D8093A9
:10049000090290930A02A0930B02B0930C02BF9141
:1004A000AF919F918F913F912F910F900FBE0F9021
:1004B0001F901895789484B5826084BD84B581605E
:1004C00084BD85B5826085BD85B5816085BDEEE65C
:1004D000F0E0808181608083E1E8F0E0108280813B
:1004E00082608083808181608083E0E8F0E08081A9
:1004F00081608083E1EBF0E0808184608083E0EBC9
:10050000F0E0808181608083E1E9F0E080818260B9
:100510008083808181608083E0E9F0E08081816078
:100520008083E1EAF0E08081826080838081816065
:100530008083E0EAF0E0808181608083E1E2F1E0A5
:10054000808182608083808181608083E0E2F1E04D
:10055000808181608083EAE7F0E08081846080832D
:1005600080818260808380818160808380818068D7
:1005700080831092C100089590E0FC013197E13131
:10058000F10508F04AC08827EE58FF4F8F4F0C94B2
:10059000C403809180008F7703C0809180008F7D9D
:1005A00080938000089584B58F7702C084B58F7DD5
:1005B00084BD08958091B0008F7703C08091B00012
:1005C0008F7D8093B0000895809190008F7707C051
:1005D000809190008F7D03C080919000877F8093F1
:1005E000900008958091A0008F7707C08091A000AF
:1005F0008F7D03C08091A000877F8093A000089525
:10060000809120018F7707C0809120018F7D03C0EA
:1006100080912001877F809320010895CF93DF93FD
:1006200090E0FC01E457FE4F2491FC01EE52FE4F96
:100630008491882361F190E0880F991FFC01E45BAD
:10064000FD4FC591D491FC01EE5CFD4FA591B49195
:10065000611109C09FB7F89488812095822388830F
:10066000EC912E230BC0623061F49FB7F89438816F
:10067000822F809583238883EC912E2B2C939FBF10
:1006800006C08FB7F894E8812E2B28838FBFDF91A7
:10069000CF9108951F93CF93DF93282F30E0F90176
:1006A000EA5BFE4F8491F901E457FE4FD491F901C2
:1006B000EE52FE4FC491CC23C9F0162F81110E9437
:1006C000BC02EC2FF0E0EE0FFF1FEE5CFD4FA5919A
:1006D000B4918FB7F894111105C09C91ED2FE0955E
:1006E000E92302C0EC91ED2BEC938FBFDF91CF910A
:1006F0001F910895CF93DF93282F30E0F901EA5B33
:10070000FE4F8491F901E457FE4FD491F901EE5266
:10071000FE4FC491CC2391F081110E94BC02EC2FBA
:10072000F0E0EE0FFF1FE85EFD4FA591B491EC9154
:10073000ED2381E090E021F480E002C080E090E0D1
:10074000DF91CF9108950E945A020E945601C0E0A5
:10075000D0E00E94B6012097E1F30E940000F9CF9B
:1007600097FB072E16F4009407D077FD09D00E945E
:10077000CC0307FC05D03EF4909581959F4F0895DA
:10078000709561957F4F0895EE0FFF1F881F8BBFF7
:100790000790F691E02D1994AA1BBB1B51E107C0ED
:1007A000AA1FBB1FA617B70710F0A61BB70B881F01
:1007B000991F5A95A9F780959095BC01CD01089590
:0407C000F894FFCFDB
:00000001FF
