:100000000C9461000C947E000C947E000C947E0095
:100010000C947E000C947E000C947E000C947E0068
:100020000C947E000C947E000C947E000C94A10035
:100030000C947E000C947E000C947E000C947E0048
:100040000C94CE000C947E000C947E000C947E00E8
:100050000C947E000C947E000C947E000C947E0028
:100060000C947E000C947E0000000007000201004A
:100070000003040600000000000000000102040864
:100080001020408001020408102001020408102002
:10009000040404040404040402020202020203032E
:1000A00003030303000000002300260029000000D2
:1000B0000000250028002B0000000000240027007D
:1000C0002A0011241FBECFEFD8E0DEBFCDBF11E064
:1000D000A0E0B1E0E0E4F4E002C005900D92A030B1
:1000E000B107D9F721E0A0E0B1E001C01D92A9302D
:1000F000B207E1F70E9411020C941E020C9400005A
:1001000061E08DE00E947C01F89410928000E1E8AB
:10011000F0E01082109285001092840082E19AE74C
:10012000909389008093880080818860808380819B
:1001300084608083EFE6F0E0808182608083789441
:1001400008951F920F920FB60F9211242F933F9391
:100150004F935F936F937F938F939F93AF93BF93CF
:10016000EF93FF938DE00E94E80161E0892B09F095
:1001700060E08DE00E94B801FF91EF91BF91AF91D7
:100180009F918F917F916F915F914F913F912F91AF
:100190000F900FBE0F901F90189508951F920F9209
:1001A0000FB60F9211242F933F938F939F93AF938A
:1001B000BF938091010190910201A0910301B09140
:1001C00004013091000123E0230F2D3720F4019624
:1001D000A11DB11D05C026E8230F0296A11DB11D6A
:1001E000209300018093010190930201A0930301E9
:1001F000B09304018091050190910601A09107013F
:10020000B09108010196A11DB11D80930501909345
:100210000601A0930701B0930801BF91AF919F9190
:100220008F913F912F910F900FBE0F901F901895B7
:10023000789484B5826084BD84B5816084BD85B5C1
:10024000826085BD85B5816085BDEEE6F0E0808188
:1002500081608083E1E8F0E01082808182608083A9
:10026000808181608083E0E8F0E08081816080832C
:10027000E1EBF0E0808184608083E0EBF0E080815E
:1002800081608083EAE7F0E0808184608083808100
:1002900082608083808181608083808180688083A8
:1002A0001092C1000895833081F028F4813099F0D4
:1002B0008230A1F008958630A9F08730B9F08430FB
:1002C000D1F4809180008F7D03C0809180008F7772
:1002D00080938000089584B58F7702C084B58F7DA8
:1002E00084BD08958091B0008F7703C08091B000E5
:1002F0008F7D8093B0000895CF93DF9390E0FC0151
:10030000E458FF4F2491FC01E057FF4F849188236C
:1003100061F190E0880F991FFC01E854FF4FC591EF
:10032000D491FC01E255FF4FA591B491611109C030
:100330009FB7F8948881209582238883EC912E239F
:100340000BC0623061F49FB7F8943881822F80959A
:1003500083238883EC912E2B2C939FBF06C08FB7ED
:10036000F894E8812E2B28838FBFDF91CF910895D9
:100370001F93CF93DF93282F30E0F901E859FF4F07
:100380008491F901E458FF4FD491F901E057FF4FF0
:10039000C491CC23C9F0162F81110E945301EC2F78
:1003A000F0E0EE0FFF1FE255FF4FA591B4918FB71C
:1003B000F894111105C09C91ED2FE095E92302C03E
:1003C000EC91ED2BEC938FBFDF91CF911F910895AE
:1003D000CF93DF93282F30E0F901E859FF4F849144
:1003E000F901E458FF4FD491F901E057FF4FC49150
:1003F000CC2391F081110E945301EC2FF0E0EE0F1D
:10040000FF1FEC55FF4FA591B491EC91ED2381E0D6
:1004100090E021F480E002C080E090E0DF91CF9195
:1004200008950E9418010E948000C0E0D0E00E9460
:10043000CD002097E1F30E940000F9CFF894FFCFA0
:00000001FF
