:100000000C9462000C948A000C948A000C948A0070
:100010000C948A000C948A000C948A000C948A0038
:100020000C948A000C948A000C948A000C948A0028
:100030000C948A000C948A000C948A000C948A0018
:100040000C94AA050C948A000C9469040C94AC04DA
:100050000C948A000C948A000C948A000C948A00F8
:100060000C948A000C948A00000000070002010032
:100070000003040600000000000000000102040864
:100080001020408001020408102001020408102002
:10009000040404040404040402020202020203032E
:1000A00003030303000000002300260029000000D2
:1000B0000000250028002B0000000000240027007D
:1000C0002A006F0511241FBECFEFD8E0DEBFCDBFE1
:1000D00011E0A0E0B1E0E0E9F0E102C005900D928E
:1000E000A033B107D9F722E0A0E3B1E001C01D922F
:1000F000A330B207E1F710E0C2E6D0E004C02197D8
:10010000FE010E944008C136D107C9F70E94C20310
:100110000C9446080C940000CF93DF93EC01CC0FB5
:10012000DD1FFE01E85FFE4F80810E949903FE0102
:10013000E05CFE4F91838083FE01E85BFE4F2081EF
:100140003181232BB1F40197A1F4FE01E050FF4F60
:1001500080810E949903FE01E85CFE4F892B21F407
:1001600080819181019703C0808191810196918363
:100170008083FE01E85BFE4FC05CDE4F8881998181
:1001800091838083DF91CF91089580E090E00E9479
:100190008C0081E090E00E948C0082E090E00E9460
:1001A0008C0083E090E00C948C00CF93DF93EC0103
:1001B000072E000C880B990B0E94FC069B01AC01DA
:1001C0000E9458060E94C406CC0FDD1FC85EDE4F99
:1001D0008881DF91CF910C94A502CF93DF9320917A
:1001E0003401309135018091380190913901232BF0
:1001F00059F49C0197FF04C022273327281B390B91
:10020000309335012093340197FF03C09195819578
:1002100091092091340130913501821B930B909309
:10022000370180933601C8E1D1E080913601909189
:1002300037018931910518F464E170E008C09C0130
:10024000295131092931310538F468E270E088819B
:1002500099810E94D5001DC09C012253310929318A
:10026000310518F46CE370E0F2CF9C012B54310996
:100270002931310518F460E570E0E9CF8436910545
:1002800044F064E670E0888199810E94D500109264
:100290003301229681E0C032D80739F6DF91CF9141
:1002A0000895CF93DF93C8E1D1E060E070E08991D9
:1002B00099910E94D50081E0C032D807B1F7DF9153
:1002C000CF9108950F931F93CF93DF932091340123
:1002D000309135018091380190913901232B59F4E7
:1002E0009C0197FF04C022273327281B390B30932A
:1002F00035012093340197FF03C0919581959109B1
:100300002091340130913501821B930B909337017A
:1003100080933601C8E1D1E005E010E0809136011C
:10032000909137018931910518F460E570E008C0BB
:100330009C01295131092931310538F46CE370E011
:10034000888199810E94D5001DC09C0122533109EA
:100350002931310518F468E270E0F2CF9C012B548A
:1003600031092931310518F464E170E0E9CF8436B0
:10037000910544F00E945101109232011093310115
:1003800000933001229681E0C032D80739F6DF9120
:10039000CF911F910F910895CF92DF92EF92FF922C
:1003A0000F931F93CF93DF938C018091380190912D
:1003B0003901892B71F0809133018823E9F0DF91B5
:1003C000CF911F910F91FF90EF90DF90CF900C9401
:1003D000ED00109235011092340181E080933301D9
:1003E000C0E1D1E08881229661E00E94690381E04A
:1003F000C831D807B9F7DFCF609138017091390162
:10040000072E000C880B990B0E94FC066B017C01E7
:10041000B801110F880B990B0E94FC0628EB3EE1F6
:100420004DE751E40E94B1079B01AC01C701B60141
:100430000E94AC0787FD1FC0809134019091350167
:10044000892B59F080913201811107C0109235013A
:100450001092340181E0809332018091320188232F
:1004600051F0DF91CF911F910F91FF90EF90DF90AE
:10047000CF900C946201DF91CF911F910F91FF906B
:10048000EF90DF90CF900895AF92BF92CF92DF921E
:10049000EF92FF920F931F93CF93DF93C8E0D1E0C9
:1004A00080E0C82E81E0D82E98E1E92E91E0F92E67
:1004B00000E111E028E3A22E21E0B22E88812296ED
:1004C00060E00E942D03F6018081F2E0CF0ED11C86
:1004D00060E00E942D03F7018081F2E0EF0EF11C35
:1004E00061E00E942D03F80180810E5F1F4F61E0E3
:1004F0000E942D03F501119211925F01F1E0C031CC
:10050000DF07E1F6109231011092300140E855E228
:1005100060E070E080E591E0DF91CF911F910F9155
:10052000FF90EF90DF90CF90BF90AF900C94E704D6
:100530000E94C5008091300190913101892B21F4F6
:1005400082E390E00C94CC0108951F93CF93DF9346
:10055000182FEB0161E00E942D03209711F460E059
:1005600004C0CF3FD10539F461E0812FDF91CF91F5
:100570001F910C946903E12FF0E0E859FF4FE491DB
:10058000E330F9F048F4E130B9F0E230A1F584B598
:10059000806284BDC8BD34C0E630E9F0E73019F1AF
:1005A000E43049F580918000806280938000D09390
:1005B0008B00C0938A0024C084B5806884BDC7BD09
:1005C0001FC080918000806880938000D093890054
:1005D000C093880015C08091B00080688093B000FF
:1005E000C093B3000DC08091B00080628093B000D2
:1005F000C093B40005C0C038D1050CF0B5CFAFCF63
:10060000DF91CF911F910895833081F028F48130DC
:1006100099F08230A1F008958630A9F08730B9F0C2
:100620008430D1F4809180008F7D03C08091800060
:100630008F7780938000089584B58F7702C084B54A
:100640008F7D84BD08958091B0008F7703C0809125
:10065000B0008F7D8093B0000895CF93DF9390E03A
:10066000FC01E458FF4F2491FC01E057FF4F8491B7
:10067000882361F190E0880F991FFC01E854FF4F37
:10068000C591D491FC01E255FF4FA591B491611140
:1006900009C09FB7F8948881209582238883EC91C4
:1006A0002E230BC0623061F49FB7F8943881822FFB
:1006B000809583238883EC912E2B2C939FBF06C0BB
:1006C0008FB7F894E8812E2B28838FBFDF91CF91CD
:1006D00008951F93CF93DF93282F30E0F901E85955
:1006E000FF4F8491F901E458FF4FD491F901E0578D
:1006F000FF4FC491CC23C9F0162F81110E9404032F
:10070000EC2FF0E0EE0FFF1FE255FF4FA591B491E3
:100710008FB7F894111105C09C91ED2FE095E92356
:1007200002C0EC91ED2BEC938FBFDF91CF911F9125
:100730000895CF93DF93282F30E0F901E859FF4F58
:100740008491F901E458FF4FD491F901E057FF4F2C
:10075000C491CC2391F081110E940403EC2FF0E0AE
:10076000EE0FFF1FEC55FF4FA591B491EC91ED23D7
:1007700081E090E021F480E002C080E090E0DF9131
:10078000CF9108950E94F4050E944402C3EAD4E088
:100790000E9498022097E1F30E94A304F9CFFC0184
:1007A00024853585F901E05CFF4F80819181329687
:1007B00020813181821B930B8F7399270895DC016F
:1007C0001C96ED91FC911D97DF01A05CBF4F2D9110
:1007D0003C91119712968D919C911197281739078A
:1007E00039F08D919C91E80FF91F808190E0089578
:1007F0008FEF9FEF0895FC01A485B585FD01E05CB6
:10080000FF4F2081318132968081918128173907ED
:1008100079F080819181A80FB91F8C91208131815D
:100820002F5F3F4F2F7333273183208390E008954C
:100830008FEF9FEF0895FC0181A1882329F0A489FF
:10084000B5898C9186FFFBCF11A208950F931F935A
:10085000CF93DF93FC01A685B7858D01005C1F4F08
:10086000E8018881998101968F739927AD014E5BCC
:100870005F4FEA012881398182179307D1F3E8019C
:1008800028813981A20FB31F6C93A685B785A05C20
:10089000BF4F11969C938E93A689B7892C9181E0C6
:1008A00090E0078C02C0880F991F0A94E2F7822B10
:1008B0008C9381E081A30488F589E02D8081806498
:1008C000808381E090E0DF91CF911F910F91089597
:1008D00008951F920F920FB60F9211242F934F93EA
:1008E0005F938F939F93EF93FF938091C00082FD5E
:1008F0001CC02091C6008091F6019091F7010196ED
:100900008F7399274091F8015091F9018417950749
:1009100071F0E091F601F091F701EA54FE4F208367
:100920009093F7018093F60102C08091C600FF9179
:10093000EF919F918F915F914F912F910F900FBEEB
:100940000F901F90189580E591E00E94CF03892BAE
:1009500011F00C94680408951F920F920FB60F9235
:1009600011242F933F938F939F93EF93FF932091A5
:10097000B2013091B3018091B4019091B501281773
:10098000390731F48091C1008F7D8093C10014C07C
:10099000E091B401F091B501EE58FE4F20818091B5
:1009A000B4019091B50101968F7399279093B50189
:1009B0008093B4012093C600FF91EF919F918F9196
:1009C0003F912F910F900FBE0F901F901895CF92CF
:1009D000DF92EF92FF920F931F93CF93DF93EC017F
:1009E0006A017B014115514E6105710509F1EC89E0
:1009F000FD8981E090E008A002C0880F991F0A9449
:100A0000E2F7808360E079E08DE390E0A701960152
:100A10000E941E0889019A0101501109210931091A
:100A20003695279517950795980101151041A8F05F
:100A3000EC89FD89108260E874E88EE190E0A701FE
:100A400096010E941E08DA01C9010197A109B109A6
:100A5000B695A795979587959C01E889F989308384
:100A6000EA89FB89208319A2EE89FF89408181E010
:100A700090E09C010C8C02C0220F331F0A94E2F715
:100A8000242B2083EE89FF8940819C010D8C02C0BC
:100A9000220F331F0A94E2F7242B2083EE89FF896B
:100AA00040819C010E8C02C0220F331F0A94E2F792
:100AB000242B2083EE89FF8920810F8C02C0880FB0
:100AC000991F0A94E2F7809582238083DF91CF916A
:100AD0001F910F91FF90EF90DF90CF900895E0E588
:100AE000F1E01382128288EE93E0A0E0B0E084830C
:100AF0009583A683B78384E291E09183808386EB1C
:100B000091E09587848782E791E09787868785ECD7
:100B100090E0918B808B84EC90E0938B828B80ECC7
:100B200090E0958B848B81EC90E0978B868B82ECA8
:100B300090E0918F808F86EC90E0938F828F84E09D
:100B4000848F83E0858F87E0868F85E0878F81E0C3
:100B500080A308951F920F920FB60F9211242F9326
:100B60003F938F939F93AF93BF938091FB0190919D
:100B7000FC01A091FD01B091FE013091FA0123E04A
:100B8000230F2D3720F40196A11DB11D05C026E8C5
:100B9000230F0296A11DB11D2093FA018093FB0142
:100BA0009093FC01A093FD01B093FE018091FF01A1
:100BB00090910002A0910102B09102020196A11D44
:100BC000B11D8093FF0190930002A0930102B093A6
:100BD0000202BF91AF919F918F913F912F910F9002
:100BE0000FBE0F901F901895789484B5826084BDD5
:100BF00084B5816084BD85B5826085BD85B5816021
:100C000085BDEEE6F0E0808181608083E1E8F0E080
:100C10001082808182608083808181608083E0E8AF
:100C2000F0E0808181608083E1EBF0E0808184608E
:100C30008083E0EBF0E0808181608083EAE7F0E090
:100C400080818460808380818260808380818160F4
:100C500080838081806880831092C1000895CF9244
:100C6000DF92EF92FF920F931F93CF93DF936C016C
:100C7000EB017B01E40EF51E00E010E0CE15DF0570
:100C800061F06991D601ED91FC910190F081E02D28
:100C9000C6010995080F191FF1CFC801DF91CF9147
:100CA0001F910F91FF90EF90DF90CF9008955058D3
:100CB000BB27AA270E946F060C9472070E94640744
:100CC00038F00E946B0720F039F49F3F19F426F4A6
:100CD0000C9461070EF4E095E7FB0C945B07E92F99
:100CE0000E94830758F3BA176207730784079507B2
:100CF00020F079F4A6F50C94A5070EF4E0950B2EE0
:100D0000BA2FA02D0B01B90190010C01CA01A0015D
:100D10001124FF27591B99F0593F50F4503E68F1B8
:100D20001A16F040A22F232F342F4427585FF3CFF9
:100D3000469537952795A795F0405395C9F77EF4CA
:100D40001F16BA0B620B730B840BBAF09150A1F013
:100D5000FF0FBB1F661F771F881FC2F70EC0BA0F99
:100D6000621F731F841F48F4879577956795B79521
:100D7000F7959E3F08F0B0CF9395880F08F099271C
:100D8000EE0F9795879508950E94CB066894B11150
:100D90000C94A60708950E948B0788F09F5798F03F
:100DA000B92F9927B751B0F0E1F0660F771F881F70
:100DB000991F1AF0BA95C9F714C0B13091F00E948A
:100DC000A507B1E008950C94A507672F782F882711
:100DD000B85F39F0B93FCCF3869577956795B395B1
:100DE000D9F73EF490958095709561957F4F8F4F20
:100DF0009F4F0895E89409C097FB3EF49095809525
:100E0000709561957F4F8F4F9F4F9923A9F0F92FD0
:100E100096E9BB279395F695879577956795B7954E
:100E2000F111F8CFFAF4BB0F11F460FF1BC06F5F34
:100E30007F4F8F4F9F4F16C0882311F096E911C046
:100E4000772321F09EE8872F762F05C0662371F067
:100E500096E8862F70E060E02AF09A95660F771F7B
:100E6000881FDAF7880F9695879597F90895990F57
:100E70000008550FAA0BE0E8FEEF16161706E80764
:100E8000F907C0F012161306E407F50798F0621B85
:100E9000730B840B950B39F40A2661F0232B242B5A
:100EA000252B21F408950A2609F4A140A6958FEF79
:100EB000811D811D089597F99F6780E870E060E0CB
:100EC00008959FEF80EC089500240A9416161706E3
:100ED00018060906089500240A941216130614062B
:100EE00005060895092E0394000C11F4882352F08E
:100EF000BB0F40F4BF2B11F460FF04C06F5F7F4F46
:100F00008F4F9F4F089557FD9058440F551F59F02C
:100F10005F3F71F04795880F97FB991F61F09F3FE6
:100F200079F087950895121613061406551FF2CF0F
:100F30004695F1DF08C0161617061806991FF1CF5F
:100F400086957105610508940895E894BB27662786
:100F50007727CB0197F908950E94370708F48FEFA0
:100F600008950E94C4070C9472070E94640738F029
:100F70000E946B0720F0952311F00C945B070C94F2
:100F8000610711240C94A6070E94830770F3959FB4
:100F9000C1F3950F50E0551F629FF001729FBB2770
:100FA000F00DB11D639FAA27F00DB11DAA1F649F0C
:100FB0006627B00DA11D661F829F2227B00DA11DBF
:100FC000621F739FB00DA11D621F839FA00D611D45
:100FD000221F749F3327A00D611D231F849F600D66
:100FE000211D822F762F6A2F11249F5750409AF08F
:100FF000F1F088234AF0EE0FFF1FBB1F661F771F1B
:10100000881F91505040A9F79E3F510580F00C94E5
:101010005B070C94A6075F3FE4F3983ED4F38695F4
:1010200077956795B795F795E7959F5FC1F7FE2B85
:10103000880F911D9695879597F90895A1E21A2E2C
:10104000AA1BBB1BFD010DC0AA1FBB1FEE1FFF1F6C
:10105000A217B307E407F50720F0A21BB30BE40BBC
:10106000F50B661F771F881F991F1A9469F7609503
:101070007095809590959B01AC01BD01CF010895BD
:10108000EE0FFF1F0590F491E02D0994F894FFCF27
:101090001500170019001B001400160018001A0094
:1010A0001E001F00200021000200030004000500B4
:1010B0000000000026042F06CF03FB03DF031B0400
:00000001FF
