:100000000C947F010C9472070C94A3070C94D407F2
:100010000C9405080C9436080C9467080C94980806
:100020000C94C9080C94B0010C94B0010C94B0016C
:100030000C94B0010C94B0010C94B0010C94B0017C
:100040000C94B0010C94B0010C94B0010C94B0016C
:100050000C94B0010C94B0010C94B0010C948A047F
:100060000C94B0010C94BB090C94AB0A0C94B00135
:100070000C94B0010C94B0010C94B0010C94B0013C
:100080000C94B0010C94B0010C94B0010C94B0012C
:100090000C94EF090C94EA0A0C94B0010C94B00192
:1000A0000C94B0010C94B0010C94B0010C94B0010C
:1000B0000C94B0010C94B0010C94B0010C94B001FC
:1000C0000C94B0010C94B0010C94B0010C94230A70
:1000D0000C94290B0C94B0010C94570A0C94680BE7
:1000E0000C94B001AA05AF05B405BE053706C805D6
:1000F000D005D805E205EC05F60505060F0637061E
:10010000190623062D0657065A064D065106910676
:100110005E06620668066C06700676067A067E063D
:100120009106840688068C064C0716071E072A07C8
:100130003707580765070C9484060C94AF050C9498
:100140002A070C946C060C941E070C945E060C9403
:1001500007090C947E060C9491060C9453090C9498
:100160002D060C948C060C94B4050C94AA050C94E2
:1001700057060C9405060C9476060C9470060C94A5
:1001800051060C944D060C9433090C94C8050C943C
:100190002F0C0C94E2050C948A0A0C94B2010C9476
:1001A0005A060C9416070C945E090C9437060C94AE
:1001B000D8050C940F060C944C070C9465070C940E
:1001C000F6050C947A060C9488060C9423060C947D
:1001D00019060C94BE050C9437070C94010D0C9471
:1001E00058070C94EC050C9417090C94D0050C944A
:1001F00068060C9462060000090A02080B0C0D0741
:1002000006030401000000000000000000000000E0
:1002100000000000000000000000000000000000DE
:10022000000011100F00000000000000000000009E
:10023000000000000000000000000000010210208B
:10024000200808102040102040800201020108040C
:1002500002010102040810204080804020100804A0
:1002600002018004020180402010080402010804F9
:10027000020101020408102040800102040810203D
:100280004080050505050705080808080202020266
:100290000A0A080804040404010101010101010122
:1002A0000303030303030303040707070C0C0C0CED
:1002B0000C0C0C0C020202020606060606060606D6
:1002C0000B0B0B0B0B0B0B0B000022002500280067
:1002D0002B002E003100340002010000050108014E
:1002E0000B0100002100240027002A002D0030000F
:1002F000330001010000040107010A012F0C112441
:100300001FBECFEFD1E2DEBFCDBF00E00CBF12E0D9
:10031000A0E0B2E0EAEAFAE100E00BBF02C0079019
:100320000D92A033B107D9F725E0A0E3B2E001C0F8
:100330001D92A130B207E1F711E0CFE7D1E000E074
:1003400006C021970109802FFE010E944B0DCE3778
:10035000D10780E00807A9F70E94FA080C94530D12
:100360000C940000E8E3F2E0808191810196918392
:1003700080830895CF93DF93809138029091390262
:10038000181619062CF4809138029091390207C092
:1003900080913802909139029195819591099093BD
:1003A000370280933602C8E1D2E080913602909104
:1003B00037028233910518F46CE370E008C09C01A9
:1003C000225331092233310530F460E570E0888131
:1003D0000E9481051CC09C0124563109223331053D
:1003E00018F464E670E0F3CF9C01265931092233FA
:1003F000310518F468E770E0EACF883C91053CF0DD
:100400006CE870E088810E94810510923302229688
:1004100082E0C032D80749F6DF91CF910895CF939B
:10042000DF93C8E1D2E08881229660E070E00E940C
:10043000810582E0C032D807B1F7DF91CF910895EE
:10044000CF93DF938091340290913502892BB9F4D8
:100450008091380290913902181619062CF4809177
:1004600038029091390207C0809138029091390288
:1004700091958195910990933502809334028091F2
:10048000380290913902181619062CF4809138021E
:100490009091390207C0809138029091390291956C
:1004A000819591092091340230913502821B930B82
:1004B0009093370280933602C8E1D2E080913602F1
:1004C000909137028233910518F468E770E008C014
:1004D0009C01225331092233310530F464E670E087
:1004E00088810E94810519C09C012456310922335C
:1004F000310518F460E570E0F3CF9C01265931090D
:100500002233310518F46CE370E0EACF883C9105A2
:1005100024F00E940F0210923202229682E0C03232
:10052000D80761F6DF91CF9108950F931F93CF9372
:10053000DF93EC018091380290913902029754F0D8
:10054000809133028823D9F0DF91CF911F910F91D1
:100550000C94BA01109235021092340281E080931B
:10056000330200E112E0F80180810E5F1F4F61E06D
:100570000E94CE06F2E008311F07A9F7E1CF809173
:1005800038029091390224E0CC0FDD1F2A95E1F763
:10059000C85CD1098C179D070CF1809134029091B1
:1005A0003502892B39F480913202811103C081E038
:1005B0008093320280913202882331F0DF91CF9113
:1005C0001F910F910C942002109239021092380260
:1005D00081E090E09093310280933002DF91CF91DF
:1005E0001F910F9108950F931F93CF93DF93EC0109
:1005F0008091380290913902029754F08091330231
:100600008823D9F0DF91CF911F910F910C94BA01FB
:10061000109235021092340281E08093330200E19F
:1006200012E0F80180810E5F1F4F60E00E94CE064D
:10063000F2E008311F07A9F7E1CF809138029091CD
:10064000390224E0CC0FDD1F2A95E1F7C85CD109FF
:100650008C179D070CF18091340290913502892B03
:1006600039F480913202811103C081E0809332021B
:1006700080913202882331F0DF91CF911F910F9149
:100680000C942002109239021092380282E090E01D
:100690009093310280933002DF91CF911F910F919F
:1006A0000895CF93DF93EC01809138029091390245
:1006B0000297DCF4109235021092340281E08093AC
:1006C000330260E0809110020E94CE0660E08091CB
:1006D00016020E94CE0660E0809112020E94CE06B1
:1006E00061E0809114020E94CE068091330288233B
:1006F00021F0DF91CF910C94BA0180913802909152
:10070000390224E0CC0FDD1F2A95E1F7C85CD1093E
:100710008C179D07FCF08091340290913502892B53
:1007200039F480913202811103C081E0809332025A
:1007300080913202882321F0DF91CF910C94200226
:10074000109239021092380283E090E090933102C7
:1007500080933002DF91CF910895CF93DF93EC0126
:1007600080913802909139020297DCF410923502A0
:100770001092340281E08093330260E08091100295
:100780000E94CE0661E0809116020E94CE0660E0D3
:10079000809112020E94CE0660E0809114020E94B5
:1007A000CE0680913302882321F0DF91CF910C9403
:1007B000BA01809138029091390224E0CC0FDD1FFC
:1007C0002A95E1F7C85CD1098C179D07FCF0809150
:1007D000340290913502892B39F4809132028111D3
:1007E00003C081E08093320280913202882321F09D
:1007F000DF91CF910C9420021092390210923802AE
:1008000085E090E09093310280933002DF91CF91A8
:100810000895CF92DF92EF92FF920F931F93CF93A1
:10082000DF9390E0C92E92E0D92E28E1E22E22E05B
:10083000F22E00E112E0C0E0D0E0F6018081F2E0AB
:10084000CF0ED11C60E00E949206F7018081F2E099
:10085000EF0EF11C61E00E949206F80180810E5FAC
:100860001F4F61E00E949206FE01EE0FFF1FE85C41
:10087000FD4F118210822196C430D105F1F662E05D
:10088000809108020E94920643E050E062EB71E022
:1008900083E00E94FE06109231021092300260ED59
:1008A00077E080E090E00E94F90440E855E260E0E3
:1008B00070E08FEB92E0DF91CF911F910F91FF904D
:1008C000EF90DF90CF900C94A70B80913002909125
:1008D000310282309105A1F02CF4009749F0019784
:1008E00059F008958330910579F0059789F00895BE
:1008F00088EC90E00C94950288EC90E00C94F30264
:1009000088EC90E00C94510388EC90E00C94AD03DB
:100910000C940F021F920F920FB60F9211242F9377
:100920003F938F939F93AF93BF9380914102909198
:100930004202A0914302B09144023091400223E070
:10094000230F2D3720F40196A11DB11D05C026E807
:10095000230F0296A11DB11D2093400280934102F6
:1009600090934202A0934302B093440280914502C7
:1009700090914602A0914702B09148020196A11DB4
:10098000B11D8093450290934602A0934702B09315
:100990004802BF91AF919F918F913F912F910F90FE
:1009A0000FBE0F901F9018953FB7F89480914502A5
:1009B00090914602A0914702B091480226B5A89BAB
:1009C00005C02F3F19F00196A11DB11D3FBFBA2FE1
:1009D000A92F982F8827820F911DA11DB11DBC0141
:1009E000CD0142E0660F771F881F991F4A95D1F706
:1009F0000895CF92DF92EF92FF92CF93DF936B0136
:100A00007C010E94D404EB01C114D104E104F1047F
:100A100079F00E94D4046C1B7D0B683E7340A0F3F8
:100A200081E0C81AD108E108F108C851DC4FECCFC9
:100A3000DF91CF91FF90EF90DF90CF900895789461
:100A400084B5826084BD84B5816084BD85B58260D3
:100A500085BD85B5816085BDEEE6F0E08081816071
:100A60008083E1E8F0E01082808182608083808171
:100A700081608083E0E8F0E0808181608083E1EB49
:100A8000F0E0808184608083E0EBF0E08081816031
:100A90008083E1E9F0E080818260808380818160F1
:100AA0008083E0E9F0E0808181608083E1EAF0E02A
:100AB000808182608083808181608083E0EAF0E0D1
:100AC000808181608083E1E2F1E0808182608083C7
:100AD000808181608083E0E2F1E0808181608083B9
:100AE000EAE7F0E080818460808380818260808397
:100AF0008081816080838081806880831092C100C2
:100B000008951F93CF93DF93182FEB0161E00E94AC
:100B10009206209711F460E004C0CF3FD10539F46C
:100B200061E0812FDF91CF911F910C94CE06E12FD0
:100B3000F0E0EA50FE4FE4914E2F50E0FA01319779
:100B4000E131F10508F093C08827EE58FF4F8F4F31
:100B50000C944B0D84B5806884BDC7BD8DC084B531
:100B6000806284BDC8BD88C0809180008068809309
:100B70008000D0938900C09388007EC0809180005F
:100B8000806280938000D0938B00C0938A0074C0F1
:100B90008091B00080688093B000C093B3006CC0B7
:100BA0008091B00080628093B000C093B40064C0B4
:100BB00080919000806880939000D0939900C093BA
:100BC00098005AC080919000806280939000D093EA
:100BD0009B00C0939A0050C08091900088608093E1
:100BE0009000D0939D00C0939C0046C08091A000CF
:100BF00080688093A0008091A0008F7B8093A000EC
:100C0000D093A900C093A80037C08091A000806253
:100C10008093A000D093AB00C093AA002DC0809118
:100C2000A00088608093A000D093AD00C093AC007A
:100C300023C080912001806880932001D0932901F6
:100C4000C093280119C08091200180628093200107
:100C5000D0932B01C0932A010FC08091200188609E
:100C600080932001D0932D01C0932C0105C0C03882
:100C7000D1050CF055CF4FCFDF91CF911F91089543
:100C800090E0FC013197E131F10508F04AC0882776
:100C9000ED57FF4F8F4F0C944B0D809180008F7755
:100CA00003C0809180008F7D80938000089584B57B
:100CB0008F7702C084B58F7D84BD08958091B00088
:100CC0008F7703C08091B0008F7D8093B00008952E
:100CD000809190008F7707C0809190008F7D03C036
:100CE00080919000877F8093900008958091A0006C
:100CF0008F7707C08091A0008F7D03C08091A000F6
:100D0000877F8093A0000895809120018F7707C08E
:100D1000809120018F7D03C080912001877F809387
:100D200020010895CF93DF9390E0FC01E45CFD4F38
:100D30002491FC01EE57FD4F8491882361F190E0EE
:100D4000880F991FFC01EE51FD4FC591D491FC0114
:100D5000E853FD4FA591B491611109C09FB7F89474
:100D60008881209582238883EC912E230BC06230EA
:100D700061F49FB7F8943881822F8095832388830C
:100D8000EC912E2B2C939FBF06C08FB7F894E8816F
:100D90002E2B28838FBFDF91CF9108951F93CF9380
:100DA000DF93282F30E0F901EA50FE4F8491F901DA
:100DB000E45CFD4FD491F901EE57FD4FC491CC2373
:100DC000C9F0162F81110E944006EC2FF0E0EE0FC3
:100DD000FF1FE853FD4FA591B4918FB7F8941111FF
:100DE00005C09C91ED2FE095E92302C0EC91ED2B1D
:100DF000EC938FBFDF91CF911F910895883008F059
:100E000070C0A82FB0E0AA0FBB1FA75BBD4F119603
:100E10007C936E9390E0FC013197E730F105A0F5EB
:100E20008827EC56FF4F8F4F0C944B0D8091690033
:100E30008C7F482B40936900E89A0895809169005F
:100E4000440F551F440F551F837F482B4093690063
:100E5000E99A08958091690074E0440F551F7A95CE
:100E6000E1F78F7C482B40936900EA9A08958091BE
:100E7000690066E0440F551F6A95E1F78F73482BB0
:100E800040936900EB9A089580916A008C7F482B0B
:100E900040936A00EC9A089580916A00440F551FB0
:100EA000440F551F837F482B40936A00ED9A0895A5
:100EB00080916A0024E0440F551F2A95E1F78F7C4A
:100EC000482B40936A00EE9A089580916A0096E05C
:100ED000440F551F9A95E1F78F73482B40936A0092
:100EE000EF9A08951F920F920FB60F9211240BB62E
:100EF0000F922F933F934F935F936F937F938F93B3
:100F00009F93AF93BF93EF93FF9380914D02909186
:100F10004E02892B29F0E0914D02F0914E02199575
:100F2000FF91EF91BF91AF919F918F917F916F91C1
:100F30005F914F913F912F910F900BBE0F900FBE7D
:100F40000F901F9018951F920F920FB60F921124B9
:100F50000BB60F922F933F934F935F936F937F93B3
:100F60008F939F93AF93BF93EF93FF9380914F0223
:100F700090915002892B29F0E0914F02F09150029C
:100F80001995FF91EF91BF91AF919F918F917F91B3
:100F90006F915F914F913F912F910F900BBE0F90EA
:100FA0000FBE0F901F9018951F920F920FB60F92C1
:100FB00011240BB60F922F933F934F935F936F9330
:100FC0007F938F939F93AF93BF93EF93FF93809102
:100FD000510290915202892B29F0E0915102F09137
:100FE00052021995FF91EF91BF91AF919F918F910F
:100FF0007F916F915F914F913F912F910F900BBE19
:101000000F900FBE0F901F9018951F920F920FB662
:101010000F9211240BB60F922F933F934F935F9330
:101020006F937F938F939F93AF93BF93EF93FF93B0
:101030008091530290915402892B29F0E091530240
:10104000F09154021995FF91EF91BF91AF919F914B
:101050008F917F916F915F914F913F912F910F9061
:101060000BBE0F900FBE0F901F9018951F920F92FE
:101070000FB60F9211240BB60F922F933F934F93FD
:101080005F936F937F938F939F93AF93BF93EF93F0
:10109000FF938091490290914A02892B29F0E091B7
:1010A0004902F0914A021995FF91EF91BF91AF91DA
:1010B0009F918F917F916F915F914F913F912F9170
:1010C0000F900BBE0F900FBE0F901F9018951F92A0
:1010D0000F920FB60F9211240BB60F922F933F93DE
:1010E0004F935F936F937F938F939F93AF93BF9330
:1010F000EF93FF9380914B0290914C02892B29F042
:10110000E0914B02F0914C021995FF91EF91BF9144
:10111000AF919F918F917F916F915F914F913F918F
:101120002F910F900BBE0F900FBE0F901F90189530
:101130001F920F920FB60F9211240BB60F922F939E
:101140003F934F935F936F937F938F939F93AF934F
:10115000BF93EF93FF938091550290915602892B94
:1011600029F0E0915502F09156021995FF91EF9107
:10117000BF91AF919F918F917F916F915F914F91AF
:101180003F912F910F900BBE0F900FBE0F901F90AD
:1011900018951F920F920FB60F9211240BB60F9253
:1011A0002F933F934F935F936F937F938F939F936F
:1011B000AF93BF93EF93FF938091570290915802A2
:1011C000892B29F0E0915702F09158021995FF916F
:1011D000EF91BF91AF919F918F917F916F915F91AF
:1011E0004F913F912F910F900BBE0F900FBE0F901C
:1011F0001F9018950E941F050E940904CAE8DAE0B2
:101200000E9465042097E1F30E948A0AF9CFFC014D
:1012100024853585F901E05CFF4F8081918132960C
:1012200020813181821B930B8F7399270895DC01F4
:101230001C96ED91FC911D97DF01A05CBF4F2D9195
:101240003C91119712968D919C911197281739070F
:1012500039F08D919C91E80FF91F808190E00895FD
:101260008FEF9FEF0895FC01A485B585FD01E05C3B
:10127000FF4F208131813296808191812817390773
:1012800079F080819181A80FB91F8C9120813181E3
:101290002F5F3F4F2F7333273183208390E00895D2
:1012A0008FEF9FEF0895FC0181A1882329F0A48985
:1012B000B5898C9186FFFBCF11A208950F931F93E0
:1012C000CF93DF93FC01A685B7858D01005C1F4F8E
:1012D000E8018881998101968F739927AD014E5B52
:1012E0005F4FEA012881398182179307D1F3E80122
:1012F00028813981A20FB31F6C93A685B785A05CA6
:10130000BF4F11969C938E93A689B7892C9181E04B
:1013100090E0078C02C0880F991F0A94E2F7822B95
:101320008C9381E081A30488F589E02D808180641D
:10133000808381E090E0DF91CF911F910F9108951C
:10134000FB01E05CFF4F208131812F5F3F4F2F7306
:101350003327DB01AE5BBF4F4D915C9124173507FE
:1013600041F040815181DB01A40FB51F8C93318383
:101370002083089508951F920F920FB60F921124A3
:101380000BB60F922F933F934F935F936F937F937F
:101390008F939F93AF93BF93EF93FF938091C00080
:1013A00082FD07C08091C6006DEB74E00E94A00929
:1013B00002C08091C600FF91EF91BF91AF919F91C4
:1013C0008F917F916F915F914F913F912F910F90EE
:1013D0000BBE0F900FBE0F901F90189508951F928F
:1013E0000F920FB60F9211240BB60F922F933F93CB
:1013F0004F935F936F937F938F939F93AF93BF931D
:10140000EF93FF938091C80082FD07C08091CE00CA
:1014100065E374E00E94A00902C08091CE00FF91B4
:10142000EF91BF91AF919F918F917F916F915F915C
:101430004F913F912F910F900BBE0F900FBE0F90C9
:101440001F90189508951F920F920FB60F921124B6
:101450000BB60F922F933F934F935F936F937F93AE
:101460008F939F93AF93BF93EF93FF938091D0009F
:1014700082FD07C08091D6006DEA73E00E94A0094A
:1014800002C08091D600FF91EF91BF91AF919F91E3
:101490008F917F916F915F914F913F912F910F901D
:1014A0000BBE0F900FBE0F901F90189508951F92BE
:1014B0000F920FB60F9211240BB60F922F933F93FA
:1014C0004F935F936F937F938F939F93AF93BF934C
:1014D000EF93FF938091300182FD07C08091360128
:1014E00065E273E00E94A00902C080913601FF917D
:1014F000EF91BF91AF919F918F917F916F915F918C
:101500004F913F912F910F900BBE0F900FBE0F90F8
:101510001F9018958FEB92E00E940709892B11F01C
:101520000E94BA098DE992E00E940709892B11F007
:101530000E94EE098BE792E00E940709892B11F0C7
:101540000E94220A89E592E00E940709892B11F086
:101550000C94560A08951F920F920FB60F92112401
:101560000BB60F922F933F938F939F93EF93FF931D
:101570002091B9043091BA048091BB049091BC04CD
:101580002817390731F48091C1008F7D8093C10005
:1015900014C0E091BB04F091BC04E758FB4F2081DC
:1015A0008091BB049091BC0401968F73992790930E
:1015B000BC048093BB042093C600FF91EF919F91E0
:1015C0008F913F912F910F900BBE0F900FBE0F90F8
:1015D0001F9018951F920F920FB60F9211240BB601
:1015E0000F922F933F938F939F93EF93FF932091AD
:1015F00031043091320480913304909134042817DF
:10160000390731F48091C9008F7D8093C90014C0DF
:10161000E0913304F0913404EF50FC4F208180912D
:1016200033049091340401968F7399279093340476
:10163000809333042093CE00FF91EF919F918F917F
:101640003F912F910F900BBE0F900FBE0F901F90E8
:1016500018951F920F920FB60F9211240BB60F928E
:101660002F933F938F939F93EF93FF932091A90321
:101670003091AA038091AB039091AC0328173907EE
:1016800031F48091D1008F7D8093D10014C0E0911E
:10169000AB03F091AC03E759FC4F20818091AB0381
:1016A0009091AC0301968F7399279093AC0380932C
:1016B000AB032093D600FF91EF919F918F913F91C3
:1016C0002F910F900BBE0F900FBE0F901F9018958B
:1016D0001F920F920FB60F9211240BB60F922F93F9
:1016E0003F938F939F93EF93FF932091210330912A
:1016F000220380912303909124032817390731F4A2
:10170000809131018F7D8093310114C0E0912303DA
:10171000F0912403EF51FD4F20818091230390919C
:10172000240301968F7399279093240380932303B6
:1017300020933601FF91EF919F918F913F912F91CF
:101740000F900BBE0F900FBE0F901F901895CF9269
:10175000DF92EF92FF920F931F93CF93DF93EC01F1
:101760006A017B014115514E6105710509F1EC8952
:10177000FD8981E090E008A002C0880F991F0A94BB
:10178000E2F7808360E079E08DE390E0A7019601C5
:101790000E94290D89019A0101501109210931097D
:1017A0003695279517950795980101151041A8F0D2
:1017B000EC89FD89108260E874E88EE190E0A70171
:1017C00096010E94290DDA01C9010197A109B10909
:1017D000B695A795979587959C01E889F9893083F7
:1017E000EA89FB89208319A2EE89FF89408181E083
:1017F00090E09C010C8C02C0220F331F0A94E2F788
:10180000242B2083EE89FF8940819C010D8C02C02E
:10181000220F331F0A94E2F7242B2083EE89FF89DD
:1018200040819C010E8C02C0220F331F0A94E2F704
:10183000242B2083EE89FF8920810F8C02C0880F22
:10184000991F0A94E2F7809582238083DF91CF91DC
:101850001F910F91FF90EF90DF90CF900895CF925E
:10186000DF92EF92FF92EFEBF2E01382128288EEAA
:10187000C82E83E0D82EE12CF12CC482D582E682DA
:10188000F78264E272E0718360838DEB94E0958768
:10189000848789E794E09787868785EC90E0918B31
:1018A000808B84EC90E0938B828B80EC90E0958B26
:1018B000848B81EC90E0978B868B82EC90E0918F0B
:1018C000808F86EC90E0938F828F44E0448F33E0EA
:1018D000358F27E0268F95E0978F81E080A3EDE993
:1018E000F2E013821282C482D582E682F78271838B
:1018F0006083A5E3B4E0B587A487A1EFB3E0B78721
:10190000A687ADECB0E0B18BA08BACECB0E0B38BB4
:10191000A28BA8ECB0E0B58BA48BA9ECB0E0B78BA0
:10192000A68BAAECB0E0B18FA08FAEECB0E0B38F85
:10193000A28F448F358F268F978F80A3EBE7F2E03D
:1019400013821282C482D582E682F7827183608319
:10195000ADEAB3E0B587A487A9E6B3E0B787A68769
:10196000A5EDB0E0B18BA08BA4EDB0E0B38BA28B62
:10197000A0EDB0E0B58BA48BA1EDB0E0B78BA68B4A
:10198000A2EDB0E0B18FA08FA6EDB0E0B38FA28F33
:10199000448F358F268F978F80A3E9E5F2E013827D
:1019A0001282C482D582E682F7827183608365E207
:1019B00073E07587648761EE72E07787668765E319
:1019C00071E0718B608B64E371E0738B628B60E319
:1019D00071E0758B648B61E371E0778B668B62E3FA
:1019E00071E0718F608F66E371E0738F628F448F57
:1019F000358F268F978F80A3FF90EF90DF90CF9049
:101A00000895CF92DF92EF92FF920F931F93CF939F
:101A1000DF936C01EB017B01E40EF51E00E010E0AA
:101A2000CE15DF0561F06991D601ED91FC91019031
:101A3000F081E02DC6011995080F191FF1CFC801DB
:101A4000DF91CF911F910F91FF90EF90DF90CF909A
:101A50000895A1E21A2EAA1BBB1BFD010DC0AA1FEF
:101A6000BB1FEE1FFF1FA217B307E407F50720F007
:101A7000A21BB30BE40BF50B661F771F881F991F82
:101A80001A9469F760957095809590959B01AC01CB
:101A9000BD01CF010895EE0FFF1F881F8BBF079078
:0A1AA000F691E02D1994F894FFCFA1
:101AAA00150019001B001D00140018001A001C0064
:101ABA002000210022002300040005000200030088
:101ACA00000000005E09010D0709330917095309CF
:00000001FF
